:060000000A128A11122809
:10000800FE00030EF1000408F2000A08F300831250
:1000180003137F08F4000A128A15742C0A128A1135
:100028001528F701F801DE01DF01E00183135E30D6
:10003800FD000C30FE005C30FF00463084000A12E0
:100048008A15D52383010A128A112A2883120313D9
:10005800C401C501C201C3010B304302B830031902
:100068004202031844280130C2070318C30A0030AB
:10007800C3070B304302B83003194202031C372868
:100088000A128A15DE250A128A1183120313DE0169
:10009800DE0AC630A3008430A4000A128A15D824C8
:1000A8000A128A1140300A128A152E240A128A115D
:1000B8003D3083120313A3008530A4000A128A1569
:1000C800D8240A128A118830F5001330F6000A1273
:1000D8008A15E2230A128A110A128A15F4230A12CF
:1000E8008A119E3083120313A3008430A4000A12DD
:1000F8008A15D8240A128A1140300A128A152E2429
:100108000A128A11153083120313A3008530A40044
:100118000A128A15D8240A128A110A128A15B224D8
:100128000A128A11003A031991280A30F5000030A2
:10013800F6000A128A15E2230A128A110A128A158F
:10014800B2240A128A11003A031DA2288316031347
:100158000C140A128A1518260A128A110C300A126F
:100168008A1574230A128A11223083120313A000FD
:100178008430A1000A128A158D240A128A110A30C5
:100188000A128A1574230A128A110D300A128A1566
:1001980074230A128A11FF3083120313BF003F0829
:1001A800A600FF300A128A115A260A128A110A1268
:1001B8008A1544240A128A11003A031DB22B8312AD
:1001C80003135E03031DB029DE010A128A15F42306
:1001D8000A128A119A29831203136008031DF8284A
:1001E800F530A30084308B29AC3083120313A300AD
:1001F80084308B296630A3008430A4000A128A1543
:10020800D8240A128A1140300A128A152E240A129A
:100218008A11823083120313A30084308B2957304C
:10022800A3008530A4000A128A15D8240A128A115C
:1002380056300A128A11CE230A128A110A128A1516
:1002480001250A128A1140300A128A152E240A1230
:100258008A114F3083120313A3008530A4000A12B9
:100268008A15D8240A128A114E300A128A11CE230E
:100278000A128A110A128A1501250A128A1191296D
:100288007430A3008430A4000A128A15D8240A12F4
:100298008A1140300A128A152E240A128A11463011
:1002A8000A128A11CE230A128A11FC3E0A128A15F2
:1002B80001250A128A118312031398290030A3001A
:1002C8008530A4000A128A15D8240A128A114030EF
:1002D8000A128A152E240A128A11DE308312031399
:1002E800A30084308B293330A3008530A4000A1280
:1002F8008A15D8240A128A1140300A128A152E2427
:100308000A128A11EA3083120313A3008430A4006E
:100318000A128A15D8240A128A110130831203138B
:10032800BF003F08DF07B029DF01B029831203139C
:100338005F08003A0319EF28013A0319FE28033A27
:1003480003196229013A03197729073A031913296E
:10035800013A0319442998290A128A15B2240A1263
:100368008A11003A0319DB2883120313C401C5015B
:100378000A128A159B270A128A11D03E8312031388
:10038800BF003F08C4000A128A15B2240A128A1153
:10039800003A031DC7298312031344080319D829F7
:1003A80009304402031C032A0A128A15F4230A128C
:1003B8008A11903083120313A3008430A4000A1218
:1003C8008A15D8240A128A1140300A128A152E2456
:1003D8000A128A11463083120313A3008530A40041
:1003E8000A128A15D8240A128A11D030F50007306B
:1003F800F6000A128A15E2230A128A11DB280A1269
:100408008A15F4230A128A11633083120313A30096
:100418008530A4000A128A15D8240A128A11831278
:1004280003134408303E0A128A1598230A128A11C7
:1004380040300A128A152E240A128A115D3083125E
:100448000313A3008530A4000A128A15D8240A12BF
:100458008A110A128A15B2240A128A11003A03195B
:100468002D2A0A30F5000030F6000A128A15E22318
:100478000A128A110A128A159B270A128A11D03E7B
:1004880083120313BF003F08C5000A128A15B2245D
:100498000A128A11003A031D492A831203134508D8
:1004A80003195A2A09304502031C852A0A128A159B
:1004B800F4230A128A11903083120313A3008430A4
:1004C800A4000A128A15D8240A128A1140300A1286
:1004D8008A152E240A128A11463083120313A300A8
:1004E8008530A4000A128A15D8240A128A11D0303D
:1004F800F5000730F6000A128A15E2230A128A115B
:10050800DB28831203134508303E0A128A15982304
:100518000A128A110A128A159B270A128A112A3A84
:10052800031D8E2A0A128A15B2240A128A11003A69
:10053800031D962A013083120313C4020130C50239
:100548004508BF003F08A60044080A128A115A2627
:100558000A128A11831203136008031DD62A45085C
:10056800BF003F08A6005630C0004008A7004E3024
:10057800C1004108A80044080A128A1101270A127A
:100588008A11003A03190F2B83120313E001E00AC2
:100598004508BF003F08B1005630C0004008B2000F
:1005A8004E30F92A831203134508BF003F08A600FE
:1005B8004E30C0004008A7005630C1004108A800CE
:1005C80044080A128A1101270A128A11003A0319EB
:1005D8000F2B83120313E0014508BF003F08B10049
:1005E8004E30C0004008B2005630C1004108B30088
:1005F80044080A128A116E250A128A11FF308312E2
:100608000313BF003F08A600FF300A128A115A26BA
:100618000A128A111F2B0A128A15F4230A128A1148
:10062800B93083120313A3008430A4000A128A1578
:10063800D8240A128A11B830F5000B30F6000A12D5
:100648008A15E2230A128A11AD282930831203136E
:10065800A3008530992B5730A3008530A4000A12D7
:100668008A15D8240A128A1156300A128A11CE2302
:100678000A128A110A128A1501250A128A114030B3
:100688000A128A152E240A128A114F308312031374
:10069800A3008530A4000A128A15D8240A128A11E8
:1006A8004E300A128A11CE230A128A110A128A15AA
:1006B80001250A128A119F2B56300A128A11CE235D
:1006C8000A128A1183120313BF004E300A128A11CC
:1006D800CE230A128A1183120313C0003F08400276
:1006E80003187A2B0B30A3008530992B4E300A1251
:1006F8008A11CE230A128A1183120313BF005630BF
:100708000A128A11CE230A128A1183120313C00017
:100718003F0840020318942BD230A3008430992B51
:10072800693083120313A3008530A4000A128A15C6
:10073800D8240A128A11013083120313BF003F081C
:10074800DF07B22B5530A3008430A4000A128A15A3
:10075800D8240A128A1183120313DF0183120313A8
:100768005E03031DB22BDE010A128A15F4230A1256
:100778008A11831203135F08003A0319292B013ADF
:1007880003192F2B033A0319602B013A0319A62BDF
:10079800B12BB22B83120313A300A001A201A10164
:1007A800083021020318F72B21082307F5007508E4
:1007B800840083130008F6007608A20022080319B3
:1007C800EF2B22080139F5007508A0072208F5006B
:1007D8000310750CDF2B0130F5007508A1070830F0
:0A07E8002102031CD82B2008080092
:10080000FF1B0A2C83137F1883170008840A03191F
:10081000FF0A08007F087F398A000408840A031948
:10082000FF0A8200313432343334413434343534C5
:100830003634423437343834393443342A3430345B
:1008400023344434213420346934733420347034F4
:100850006F3469346E347434653472342C3420341B
:100860002E34203469347334203465346D3470345C
:10087000743479342C3420346734723465346534FC
:100880006E34203469347334203427344F342734A1
:100890002C34203472346534643420346934733435
:1008A00020342734583427340034523465347334B8
:1008B00065347434203474346F34203452346534E5
:1008C0007334743461347234743400345034723498
:1008D00065347334733420346B34653479342034A4
:1008E00031342D343834003454346F34743461343A
:1008F0006C34203450346C3461347934653464346D
:100900003A34003474346F34203465346E347434C3
:100910006534723420346D346F3476346534003489
:1009200050346C346534613473346534203473343A
:1009300065346C3465346334743400345034723448
:10094000653473347334203461346E347934203434
:100950006B3465347934003447347234653465342B
:100960006E342734733420345434753472346E3416
:10097000003449346E34763461346C346934643410
:10098000203450346C346134793400345734653455
:100990006C3463346F346D346534203474346F34A4
:1009A0002034003447347234653465346E34203476
:1009B000573469346E3473342134003473346534FD
:1009C0006C3465346334743420346D346F3476346D
:1009D0006534003443346F346C34203473346534FC
:1009E00063346F346E3464340034523465346434A8
:1009F0002734733420345434753472346E340034F4
:100A00005034723465347334733420342A342034CF
:100A100074346F34003452346534643420345734C1
:100A200069346E3473342134003474346F342034B8
:100A300073347434613472347434213400342034A7
:100A40003134323433343434353436343734383462
:100A50000034473461346D34653420346F34763477
:100A600065347234003452346F3477342034663451
:100A7000693472347334743400344F3474346834E9
:100A800065346C346C346F34213400346B34653429
:100A900079347334203431342D34383400344734CD
:100AA0007234653465346E343A3420340034523450
:100AB000653464343A342034003443346F346C3455
:100AC0003A342034003452346F3477343A3420349A
:100AD00000345434693465342134003483120313F0
:100AE000BC0008303C02031808000830310203182B
:100AF00008003108B4003408F5004630B500350868
:100B0000F6003C080A128A15A5250A128A11003A35
:100B10000319080083120313310AB4008030B500B2
:100B20000030B600962D360DB60CB50CB40B932DD7
:100B3000831203133508B7003C083207B8003808A1
:100B40008400370883138004BD01BD033D08803A4B
:100B50007E3E0318432EBE01BE033E08803A7E3E11
:100B600003183A2E3C083D07B4003408BA00310897
:100B70003E07B4003408BB00B9013B08B400340898
:100B8000F5004630B5003508F6003A080A128A1515
:100B9000A5250A128A11003A031D2F2E0830831250
:100BA00003133A02031CD82D08303B020318222EEF
:100BB0003B08B4003408F5003308B5003508F600EA
:100BC0003A080A128A15A5250A128A11003A031D4D
:100BD000012E831203133B08B4003408F5003208D9
:100BE000B5003508F6003A080A128A15A5250A123A
:100BF0008A11013A031D012E83120313B901B90AA8
:100C0000222E831203133903031D2F2E31083E07B2
:100C1000B4003408A6003D08B5003508A7003E081A
:100C2000B6003608A8003208B7003708A900330814
:100C3000B8003808AA003C083D070A128A15F026B9
:100C40000A128A11831203133A083D07B4003408CC
:100C5000BA003B083E07B4003408BB00BD2D01308C
:100C600083120313B4003408BE073E08803A7E3E68
:100C7000031CB22D0130B4003408BD073D08803A92
:100C80007E3E031CAB2D310AB4008030B50000302D
:100C9000B6004D2E360DB60CB50CB40B4A2E831291
:100CA00003133508B7003C08463E84003708831319
:100CB0008004080083120313A9001F30A0008530B0
:100CC000A1000A128A158D240A128A110A300A120A
:100CD0008A1574230A128A110D300A128A15742398
:100CE0000A128A1183120313AB0108302B02031876
:100CF000F62E2B08313E0A128A1574230A128A1125
:100D000083120313AA0108302A020318E02E2B08CD
:100D10002906031D912E2A082606031D912E213037
:100D2000D12E831203132A08A7002708F5004630A6
:100D3000A8002808F6002B080A128A15A5250A1211
:100D40008A11013A031DA62E2E30D12E83120313D1
:100D50002A08A7002708F5004E30A8002808F6004A
:100D60002B080A128A15A5250A128A11013A031DB9
:100D7000D02E831203132A08A7002708F500563047
:100D8000A8002808F6002B080A128A15A5250A12C1
:100D90008A11003A0319CE2E3F30D12E5830D12E71
:100DA0004F300A128A1574230A128A1101308312F5
:100DB0000313A7002708AA0708302A02031C872E5E
:100DC0000A300A128A1574230A128A110D300A1287
:100DD0008A1574230A128A11013083120313A700A3
:100DE0002708AB0708302B02031C792E0A300A12A1
:100DF0008A1574230A128A110D300A128A15742377
:100E0000080083120313AC0008302C020318A22F31
:100E1000083026020318A22F2608A9002908F50089
:100E20004630AA002A08F6002C080A128A15A525C1
:100E30000A128A11003A0319A22F83120313AD017B
:100E4000AD032D08803A7E3E0318A22FAE01AE03FB
:100E50002E08803A7E3E0318992F2C082D07A900F2
:100E60002908AF0026082E07A9002908B000AB0109
:100E70003008A9002908F5004630AA002A08F60023
:100E80002F080A128A15A5250A128A11003A031D95
:100E90008E2F0830831203132F02031C532F0830A8
:100EA00030020318832F3008A9002908F50028080C
:100EB000AA002A08F6002F080A128A15A5250A1288
:100EC0008A11003A031D7C2F831203133008A900F6
:100ED0002908F5002708AA002A08F6002F080A1298
:100EE0008A15A5250A128A11013A031D7C2F831247
:100EF0000313AB01AB0A832F831203132B03031DD0
:100F00008E2F013008002F082D07A9002908AF00F7
:100F100030082E07A9002908B000382F01308312AD
:100F20000313A9002908AE072E08803A7E3E031C51
:100F30002D2F0130A9002908AD072D08803A7E3EEB
:100F4000031C262F0030080083120313A501A11FE4
:100F5000B02FA009A109A00A0319A10AA501A50A99
:100F6000A31FBB2FA209A309A20A0319A30A0130D8
:100F7000F5007508A506A601A7012008210403199C
:100F8000F22FA401A40AA11BD12F01300310A00D40
:100F9000A10DFF3E031DC62F0130F5007508A40703
:100FA000C32F01300310A60DA70DFF3E031DD22F46
:100FB00021082302031DDE2F20082202031CE72F35
:100FC0002008A2022108031CA303A3022614013057
:100FD0000310A10CA00CFF3E031DE82F0130A4025A
:100FE000031DD12F25080319FA2FA609A709A60A60
:0E0FF0000319A70A2708A1002608A000080080
:1016E800F500831203130C1E752B7508990008006A
:1016F800C030F500750883160313810581140800AE
:10170800F60103307602031808000130F500750869
:10171800F607852B8312031305160A128A158423EC
:10172800831203130512080083120313A40024086C
:10173800A3002308A00001300A128A156D250800AD
:1017480083120313A10020080319AC2B0130AD2B21
:10175800003021040A128A15192408000A128A1571
:1017680037250A128A15003A031DB22B8316031374
:101778001114111C0800BD2B0A128A1537250A12EC
:101788008A15003A031DC02B83160313111511196E
:10179800CB2B831203138C1108007E088A007F0864
:1017A8008200D1230A128A158000840A04087D0663
:1017B80003190034FF0A0319FE0AD52B75087604AD
:1017C8000319080009308312031381000B110B1D44
:1017D800EB2B0130F5020030031CF603F602E22B76
:1017E80083120313A001A00A00300A128A156D257E
:1017F8000A128A150230F5000030F6000A128A151E
:10180800E22308008316031387150716940128306E
:10181800831203139400831603139101633093001A
:10182800831203138D118C110800F60076088312B9
:10183800031393008C118316031314191F2C83129E
:1018480003138C1183160313110EF500F50C750C98
:101858000139080083120313A4002408803EA30062
:101868002308A00000300A128A156D250A128A156D
:101878000230F5000030F6000A128A15E22308004B
:10188800F6010830760203185A2C7608463E840082
:101898008313000A0319522C003008000130F500A8
:1018A8007508F60708307602031C492C0130080039
:1018B8000034003400341834183400340034003450
:1018C8000034003400340834103400340034003458
:1018D8000034003400341034083400340034003448
:1018E8000C1C822C0C1009307702031C7E2CDE01A4
:1018F800DE0AF7010130F0007008F7077408FF00EE
:1019080073088A0072088400710E8300FE0E7E0E32
:101918000900831203132108FF00200884000A121B
:101928008A1100240A128A15003A03190800831242
:1019380003132108FF00200884000A128A110024DA
:101948000A128A150A128A1574230A128A15013096
:1019580083120313A0070318A10A8D2CE030F500A9
:10196800750883120313A100A001F0302105F500CA
:10197800F03075060319D62C2108860006080F39A1
:10198800F5007508A0000F3020060319CD2C013092
:1019980008002108F039F50075071038F6007608B8
:1019A800A100B92C00300800831203132408FF009B
:1019B800230884000A128A1100240A128A15003AA0
:1019C80003190800831203132408FF002308840066
:1019D8000A128A1100240A128A15A5002508A000F7
:1019E80001300A128A156D250A128A1501308312F0
:1019F8000313A3070318A40AD82C83120313AA00FD
:101A08000A30A0000030A1002A08A800A90128086F
:101A1800A2002908A3000A128A11A4270A128A150B
:101A2800831203132008303E0A128A1598230A12DB
:101A38008A150A3083120313A0000030A1002A0877
:101A4800A800A9012808A2002908A3000A128A15DB
:101A5800A3260A128A15831203132008303E0A129D
:101A68008A159823080083160313110E013983126F
:101A78000313A00083160313110C83120313A10090
:101A8800A10C210C0139A20083160313110C831237
:101A98000313A300230C0139A40083160313110CAC
:101AA800013983120313A5008316031311080139A2
:101AB80083120313A60083160313140C8312031353
:101AC800A700270C01392604250424042204200435
:101AD800080083120313A2002008A1000430031099
:101AE800A10CFF3E031D732D21080F398500221C10
:101AF800812D831203138516842D831203138512F7
:101B08000A128A158E230A128A150A128A15842344
:101B18000A128A158312031320080F398500221C24
:101B2800992D8312031385169C2D83120313851296
:101B38000A128A158E230A128A150A128A15842314
:101B4800080083120313A400750AA0008030A100C6
:101B58000030A200B22D220DA20CA10CA00BAF2DBB
:101B6800831203132108A3002308A500240876077D
:101B7800A0002008840083130008A1002108A506FE
:101B880024087607A000200884000008A100210886
:101B9800A50524087607A00020088400000825066B
:101BA800031DD82D0130D92D0030A1002108A50032
:101BB800250808000A128A1541270A128A150A12EE
:101BC8008A1506240A128A150A128A1559260A1233
:101BD8008A1583160317880189010F3083160313AA
:101BE80086008113880187018312031310141013D0
:101BF800901610169010831603130C1083120313FB
:101C08000C109817831603131812981683120313CF
:101C18001816831603178715831603131815CF3064
:101C280099008B170B1708000A128A15B2230A129B
:101C38008A15831203138814A00170300A128A15BA
:101C4800A4230A128A1500300A128A1519240A12C6
:101C58008A1583120313A901083029020318542E88
:101C680029084E3E8400831300080A128A15192495
:101C78000A128A15831203132908563E8400831317
:101C880000080A128A1519240A128A1501308312CB
:101C98000313A8002808A90708302902031C342EBA
:101CA80088100A128A15C02308000A128A15B2235E
:101CB8000A128A1583120313A00170300A128A15BA
:101CC800A4230A128A1521300A128A1519240A1225
:101CD8008A150A128A15C0230A128A150A128A1549
:101CE800B2230A128A1583120313A00170300A1254
:101CF8008A15A4230A128A15EF300A128A151924A4
:101D08000A128A150A128A15C0230A128A150A129B
:101D18008A15B2230A128A1583120313A0017030A0
:101D28000A128A15A4230A128A1581300A128A1502
:101D380019240A128A150A128A15C0230800831268
:101D48000313A501A31FAF2EA209A309A20A031911
:101D5800A30AA501A50AA11FB62EA009A109A00AD8
:101D68000319A10A200821040319E32EA401A40AD7
:101D7800A11BCA2E01300310A00DA10DFF3E031DAB
:101D8800BF2E0130F5007508A407BC2E21082302D8
:101D9800031DD02E20082202031CD82E2008A202E0
:101DA8002108031CA303A30201300310A10CA00CFB
:101DB800FF3E031DD92E0130A402031DCA2E25089B
:101DC8000319EB2EA209A309A20A0319A30A2308DF
:101DD800A1002208A000080083120313B000831298
:101DE8000313260AAB008030AC000030AD00FF2E94
:101DF8002D0DAD0CAC0CAB0BFC2E831203132C0871
:101E0800AE0030082907AF002F0884002E0883137E
:101E18008004260AAB008030AC000030AD00172FDC
:101E28002D0DAD0CAC0CAB0B142F831203132C0827
:101E3800AE0030082A07AF002F0884002E0883134D
:101E480080062708AB002B08B0072808AB002B0832
:101E5800A6072608AB002B08F5002908AC002C08BB
:101E6800F60030080A128A15A5250A128A15003AC2
:101E78000319080083120313F32E831603170808A7
:101E8800E039880083160313850183120313850143
:101E98000A128A157C230A128A15831203138512E3
:101EA80005120F30F5000030F6000A128A15E223F9
:101EB8000A128A15283083120313A3002308A000EE
:101EC80000300A128A156D250A128A150F30F5009E
:101ED8000030F6000A128A15E2230A128A15283001
:101EE80083120313A3002308A00000300A128A15E6
:101EF8006D250A128A150C3083120313A3002308D8
:101F0800A00000300A128A156D250A128A150A12D5
:101F18008A15F4230A128A15063083120313A300C4
:101F28002308A00000300A128A156D250800E03049
:101F3800F500750883120313A100A001A201F03077
:101F480021060319FE2F2108860006080F39F5001F
:101F58007508A000E32F2203FF3A033E1E3E8400CB
:101F680084300318013EFF000A128A110024080079
:101F78002203FF3A033E1A3E840084300318013ED0
:101F8800FF000A128A11002408002203FF3A033EC8
:101F9800163E840084300318013EFF000A128A119D
:101FA800002408002203FF3A033E123E84008430D6
:101FB8000318013EFF000A128A11002408002008B5
:101FC800073A0319D62F0C3A0319C92F063A0319F1
:101FD800BC2F033A0319AF2FF12F0130F500750814
:101FE800A2072108F039F50075071038F6007608C1
:081FF800A100A32F0030080036
:04400E00F2E0FFFEDF
:00000001FF
